:020000040000FA
:0400000098EF14F071
:1008000000256425634320200054656D703A00255F
:10081000690031310000000E846E000E8D6E000EF6
:100820000F015F6F000E966E010E22EC10F00C0EA1
:1008300022EC10F0000E026E050E016E55EC13F066
:1008400001C009F002C00AF0000E0ABEFF0E0B6ED6
:100850000C6E010E3AEC0DF009C017F00AC018F04A
:100860000BC019F00CC01AF0F60E1B6E280E1C6E91
:100870009C0E1D6E400E1E6ED6EC06F017C08DF05D
:1008800018C08EF019C08FF01AC090F08DC001F022
:100890008EC002F08FC003F090C004F0000E056E11
:1008A000000E066E200E076E410E086EEBEC08F08F
:1008B00001C08DF002C08EF003C08FF004C090F034
:1008C0007A0E0001606F000E616F010E626F080EFC
:1008D000636F8DC001F08EC002F08FC003F090C036
:1008E00004F04AEC11F001C064F002C065F0000EA3
:1008F0000001676FDF0E666F01EC14F0060E046EE8
:100900007A0E056E000E066E020ECDEC11F0000E92
:10091000046E090E056E080E066E020ECDEC11F087
:10092000000E026E010E016E000E046EFE0E036ECE
:10093000000E066E890E056E87EC14F0010E0001A4
:100940007625766F000E7721776F840E606F000E2C
:10095000616F0F0E626F080E636F76C064F077C030
:1009600065F001EC14F00A0E046E840E056E000EA4
:10097000066E010ECDEC11F0090E046E0D0E056E23
:10098000080E066E010ECDEC11F03B0E000176193B
:100990007711D8A4CEEF04F0D0EF04F080EF05F08B
:1009A000000E776F000E766F300E846F200E856F0D
:1009B0000A0E046E840E056E000E066E010ECDEC5E
:1009C00011F0090E046E0D0E056E080E066E010E76
:1009D000CDEC11F0010E00017425746F000E75212D
:1009E000756F870E606F000E616F0F0E626F080EDD
:1009F000636F74C064F075C065F001EC14F0070E0D
:100A0000046E870E056E000E066E010ECDEC11F021
:100A1000000E026E050E016E55EC13F001C009F0D8
:100A200002C00AF0000E0ABEFF0E0B6E0C6E010E25
:100A30003AEC0DF009C017F00AC018F00BC019F01D
:100A40000CC01AF0F60E1B6E280E1C6E9C0E1D6E4E
:100A5000400E1E6ED6EC06F017C08DF018C08EF05A
:100A600019C08FF01AC090F08DC001F08EC002F056
:100A70008FC003F090C004F0000E056E000E066EED
:100A8000200E076E410E086EEBEC08F001C08DF0F1
:100A900002C08EF003C08FF004C090F07A0E000107
:100AA000606F000E616F010E626F080E636F8DC084
:100AB00001F08EC002F08FC003F090C004F04AEC49
:100AC00011F001C064F002C065F0000E0001676F14
:100AD000DF0E666F01EC14F0060E046E7A0E056EE2
:100AE000000E066E020ECDEC11F0000E046E090E23
:100AF000056E080E066E020ECDEC11F0CBEF06F07F
:100B00003B0E74197511D8A488EF05F08AEF05F033
:100B10003AEF06F0000E756F000E746F300E876F9F
:100B2000200E886F070E046E870E056E000E066E8F
:100B3000010ECDEC11F0060E046E0D0E056E080EC2
:100B4000066E010ECDEC11F0010E00017225726FE0
:100B5000000E7321736F8A0E606F000E616F0F0EAF
:100B6000626F080E636F72C064F073C065F001ECD1
:100B700014F0040E046E8A0E056E000E066E010E51
:100B8000CDEC11F0000E026E050E016E55EC13F067
:100B900001C009F002C00AF0000E0ABEFF0E0B6E83
:100BA0000C6E010E3AEC0DF009C017F00AC018F0F7
:100BB0000BC019F00CC01AF0F60E1B6E280E1C6E3E
:100BC0009C0E1D6E400E1E6ED6EC06F017C08DF00A
:100BD00018C08EF019C08FF01AC090F08DC001F0CF
:100BE0008EC002F08FC003F090C004F0000E056EBE
:100BF000000E066E200E076E410E086EEBEC08F03C
:100C000001C08DF002C08EF003C08FF004C090F0E0
:100C10007A0E0001606F000E616F010E626F080EA8
:100C2000636F8DC001F08EC002F08FC003F090C0E2
:100C300004F04AEC11F001C064F002C065F0000E4F
:100C40000001676FDF0E666F01EC14F0060E046E94
:100C50007A0E056E000E066E020ECDEC11F0000E3F
:100C6000046E090E056E080E066E020ECDEC11F034
:100C7000CBEF06F0180E72197311D8A442EF06F0EC
:100C800044EF06F0CBEF06F0000E736F010E726FAB
:100C9000310E8A6F200E8B6F040E046E8A0E056E65
:100CA000000E066E010ECDEC11F0000E026E050E68
:100CB000016E55EC13F001C009F002C00AF0000EFD
:100CC0000ABEFF0E0B6E0C6E010E3AEC0DF009C061
:100CD00017F00AC018F00BC019F00CC01AF0F60E8D
:100CE0001B6E280E1C6E9C0E1D6E400E1E6ED6ECEA
:100CF00006F017C08DF018C08EF019C08FF01AC022
:100D000090F08DC001F08EC002F08FC003F090C053
:100D100004F0000E056E000E066E200E076E410EEA
:100D2000086EEBEC08F001C08DF002C08EF003C03D
:100D30008FF004C090F07A0E0001606F000E616FBA
:100D4000010E626F080E636F8DC001F08EC002F05D
:100D50008FC003F090C004F04AEC11F001C064F0C1
:100D600002C065F0000E0001676FDF0E666F01ECD8
:100D700014F0060E046E7A0E056E000E066E020E5C
:100D8000CDEC11F0000E046E090E056E080E066E15
:100D9000020ECDEC11F0000178517911D8B4D3EFE7
:100DA00006F0D5EF06F01AEF04F012001A50800B8F
:100DB000236E1A501A24296E19AEE1EF06F0E3EF04
:100DC00006F0E4EF06F029802950D8B4EAEF06F0E7
:100DD000ECEF06F0FFEF06F02928D8A4F2EF06F0BA
:100DE000F4EF06F0FCEF06F0000E176E000E186E22
:100DF000000E196E000E1A6E198E07EF07F0000E26
:100E0000176E000E186E000E196E000E1A6E1E5030
:100E1000800B231A1E501E24286E1DAE12EF07F001
:100E200014EF07F015EF07F028802850D8B41BEF17
:100E300007F01DEF07F030EF07F02828D8A423EFC4
:100E400007F025EF07F02DEF07F0000E1B6E000EE8
:100E50001C6E000E1D6E000E1E6E1D8E38EF07F00C
:100E6000000E1B6E000E1C6E000E1D6E000E1E6E20
:100E70002850D8B43EEF07F040EF07F048EF07F0F6
:100E80002950D8A446EF07F048EF07F052EF07F0DB
:100E9000000E176E000E186E000E196E000E1A6E00
:100EA000EAEF08F01D501702F3CF2EF0F4CF2FF029
:100EB0002E50246E256A266A276A2F502A6E2B6AC6
:100EC0002C6A2D6A1C501802F3CF2EF0F4CF2FF0AD
:100ED0002E502426000E2522262227222F502A2695
:100EE000000E2B222C222D221B501902F3CF2EF0A4
:100EF000F4CF2FF02E502426000E25222622272262
:100F00002F502A26000E2B222C222D2226C027F01D
:100F100025C026F024C025F0246A1B501802F3CF08
:100F20002EF0F4CF2FF02E5024262F502522000E25
:100F30002622000E27221C501702F3CF2EF0F4CFEA
:100F40002FF02E5024262F502522000E2622000E90
:100F5000272226C027F025C026F024C025F0246AC9
:100F60001B501702F3CF2EF0F4CF2FF02E50242673
:100F70002F502522000E2622000E27221D50180277
:100F8000F3CF2EF0F4CF2FF02E502A262F502B2205
:100F9000000E2C22000E2D221C501902F3CF2EF031
:100FA000F4CF2FF02E502A262F502B22000E2C2269
:100FB000000E2D221D501902F3CF2EF0F4CF2FF08A
:100FC0002E501F6E2F50206E216A226A21C022F0FF
:100FD00020C021F01FC020F01F6A1F502A26205079
:100FE0002B2221502C2222502D2224C01FF025C05C
:100FF00020F026C021F027C022F0190E05EF08F0DE
:10100000D8902232213220321F32E82E00EF08F031
:101010001F502A2620502B2221502C2222502D22D4
:1010200026C027F025C026F024C025F0246A2850C9
:1010300029C01FF0206A1F26000E2022820E1F24C6
:101040002E6EFF0E20202F6E3BEF08F0D8902A3630
:101050002B362C362D3627AE30EF08F032EF08F065
:1010600033EF08F02A80D8902436253626362736E6
:101070002E06D8A02F062CAE40EF08F042EF08F065
:1010800026EF08F0000E286E27AE49EF08F04BEF70
:1010900008F06FEF08F0FF0E24141F6EFF0E2514EA
:1010A000206EFF0E2614216E7F0E2714226E1F5015
:1010B000201021102210D8B460EF08F062EF08F081
:1010C00066EF08F0010E286E6FEF08F02AA06BEFB4
:1010D00008F06DEF08F06FEF08F062EF08F02850AD
:1010E000D8B475EF08F077EF08F09BEF08F0010E29
:1010F0002A26000E2B222C222D222DA082EF08F072
:1011000084EF08F09BEF08F02AC01FF02BC020F0FE
:101110002CC021F02DC022F0223422322132203284
:101120001F321FC02AF020C02BF021C02CF022C09B
:101130002DF02E4A2F2A2FBEA6EF08F02F5008E1DF
:101140002E28D8A0A6EF08F0A8EF08F0B2EF08F01C
:10115000000E2A6E000E2B6E800E2C6E7F0E2D6EF2
:10116000E0EF08F02FBEBFEF08F02F5006E12E048D
:10117000D8B0BDEF08F0BFEF08F0CBEF08F0000EDD
:101180002A6E000E2B6E000E2C6E000E2D6E000EC1
:10119000236EE0EF08F02EC029F0FF0E2A16FF0E96
:1011A0002B167F0E2C16000E2D1629A0DAEF08F054
:1011B000DCEF08F0DDEF08F02C8ED89029302D6E92
:1011C00023502D122AC017F02BC018F02CC019F094
:1011D0002DC01AF012000450800B116E045004242C
:1011E000186E03AEF6EF08F0F8EF08F0F9EF08F02C
:1011F00018801850D8B4FFEF08F001EF09F016EF8F
:1012000009F01828D8A407EF09F009EF09F011EF49
:1012100009F0000E016E000E026E000E036E000E4D
:10122000046E038E000E046E1EEF09F0000E016EB8
:10123000000E026E000E036E000E046E0850800B4E
:10124000111A08500824196E07AE29EF09F02BEF88
:1012500009F02CEF09F019801950D8B432EF09F0D9
:1012600034EF09F049EF09F01928D8A43AEF09F052
:101270003CEF09F044EF09F0000E056E000E066E1B
:10128000000E076E000E086E078E000E086E51EFFE
:1012900009F0000E056E000E066E000E076E000EC1
:1012A000086E0550061007100810D8A45AEF09F070
:1012B0005CEF09F074EF09F0000E016E000E026E93
:1012C000000E036E000E046E800E03127F0E0412D9
:1012D0001150041201C001F002C002F003C003F07B
:1012E00004C004F0B7EF0AF01850D8A47AEF09F060
:1012F0007CEF09F086EF09F0000E016E000E026E21
:10130000000E036E000E046EB7EF0AF0195018C0FD
:1013100009F00A6A095E000E0A5A7F0E0924126E4D
:10132000000E0A20136E01C00DF002C00EF003C0C3
:101330000FF004C010F0000E016E000E026E000EE1
:10134000036E000E046E000E146E000E156E000E7D
:10135000166E000E176E000E196EE7EF09F01950A9
:10136000D8B4B5EF09F0B7EF09F0CEEF09F0D89097
:101370000D360E360F361036D8900136023603364B
:10138000043617AEC6EF09F0C8EF09F0C9EF09F04F
:101390000180D890143615361636173605500D5C78
:1013A00006500E5807500F5808501058D8A0DBEFC1
:1013B00009F0DDEF09F0E6EF09F0178C05500D5E3E
:1013C00006500E5A07500F5A0850105A192A190E73
:1013D0001964EDEF09F0EFEF09F0AFEF09F00D50F0
:1013E0000E100F101010D8B4F8EF09F0FAEF09F052
:1013F00012EF0AF0148012EF0AF0D890013602368C
:101400000336043617AE07EF0AF009EF0AF00AEFC9
:101410000AF00180D89014361536163617361206A3
:10142000D8A0130603AE17EF0AF019EF0AF0FDEF8C
:1014300009F0000E196E17AE20EF0AF022EF0AF045
:1014400046EF0AF0FF0E1414096EFF0E15140A6E13
:10145000FF0E16140B6E7F0E17140C6E09500A1037
:101460000B100C10D8B437EF0AF039EF0AF03DEF4B
:101470000AF0010E196E46EF0AF001A042EF0AF0E1
:1014800044EF0AF046EF0AF039EF0AF01950D8B4E9
:101490004CEF0AF04EEF0AF072EF0AF0010E01264F
:1014A000000E02220322042204A059EF0AF05BEF8F
:1014B0000AF072EF0AF001C009F002C00AF003C09E
:1014C0000BF004C00CF00C340C320B320A3209322F
:1014D00009C001F00AC002F00BC003F00CC004F018
:1014E000124A132A13BE7DEF0AF0135008E11228A6
:1014F000D8A07DEF0AF07FEF0AF08AEF0AF0000E25
:10150000136E1268000E016E000E026E000E036E66
:10151000000E046E13BE97EF0AF0135006E112049A
:10152000D8B095EF0AF097EF0AF0A5EF0AF0000E99
:10153000136E000E126E000E016E000E026E000E93
:10154000036E000E046E000E116E12C018F018A08B
:10155000ACEF0AF0AEEF0AF0B1EF0AF0038EB2EF93
:101560000AF0039ED8901830046E68EF09F012005C
:101570001EC036F01FC037F020C038F021C039F04F
:1015800022C03AF023C03BF024C03CF025C03DF01F
:101590003DBECDEF0AF0D0EF0AF0010ED1EF0AF018
:1015A000000E346E356A34503510D8B4DAEF0AF0D4
:1015B000DCEF0AF0ECEF0AF03D1E3C1E3B1E3A1E2B
:1015C000391E381E371E366C000E3722382239225B
:1015D0003A223B223C223D22000196BFF2EF0AF064
:1015E000F4EF0AF0F5EF0AF05D9296BF02EF0BF010
:1015F000965106E19505D8B000EF0BF002EF0BF025
:1016000008EF0BF0000E316E010E306E0CEF0BF098
:1016100095C030F096C031F093C032F094C033F0F2
:1016200034503510D8A417EF0BF019EF0BF020EF62
:101630000BF05DA41EEF0BF020EF0BF023EF0BF08F
:101640003206D8A03306000E3F6E1F0E3E6E000E0F
:10165000B66FA7EF0BF03E06D8A03F06970E3E24CC
:10166000D96E000E3F20DA6E36C001F037C002F0AE
:1016700038C003F039C004F03AC005F03BC006F0B2
:101680003CC007F03DC008F00A0E096E000E0A6E5D
:10169000000E0B6E000E0C6E000E0D6E000E0E6E28
:1016A000000E0F6E000E106ED8EC0EF001C026F08A
:1016B00002C027F003C028F004C029F005C02AF0BA
:1016C00006C02BF007C02CF008C02DF026C013F088
:1016D00028C014F04CEC14F01350300FDF6E3006BD
:1016E000D8A031063206D8A0330636C001F037C084
:1016F00002F038C003F039C004F03AC005F03BC036
:1017000006F03CC007F03DC008F00A0E096E000E5E
:101710000A6E000E0B6E000E0C6E000E0D6E000EAB
:101720000E6E000E0F6E000E106E14EC0EF001C067
:1017300036F002C037F003C038F004C039F005C0FD
:101740003AF006C03BF007C03CF008C03DF03FBE99
:10175000B2EF0BF03F5008E13E04D8A0B2EF0BF01F
:10176000B4EF0BF0E4EF0BF03650371038103910AF
:101770003A103B103C103D10D8A4C1EF0BF0C3EF62
:101780000BF02BEF0BF031BED0EF0BF0315006E138
:101790003004D8B0CEEF0BF0D0EF0BF02BEF0BF006
:1017A00033BEDBEF0BF0335008E13204D8A0DBEF9F
:1017B0000BF0DDEF0BF0E4EF0BF05DB2E2EF0BF0BE
:1017C000E4EF0BF02BEF0BF034503510D8A4EBEF17
:1017D0000BF0EDEF0BF0F4EF0BF05DA4F2EF0BF07C
:1017E000F4EF0BF012EF0CF03E06D8A03F06345099
:1017F0003510D8A4FEEF0BF000EF0CF006EF0CF064
:10180000000E2F6E2B0E2E6E0AEF0CF0000E2F6EB8
:101810002D0E2E6E970E3E24D96E000E3F20DA6EEE
:101820002EC0DFFF1CC011F01DC012F0970E3E2429
:10183000136E000E3F20146E32C015F033C016F048
:1018400098EC12F011C01CF012C01DF0120042C042
:10185000D9FF43C0DAFFDECFF6FFDDCFF7FF080088
:10186000F550250AD8A437EF0CF039EF0CF01EEF35
:101870000DF042C0D9FF43C0DAFFDE2A000EDD22A0
:10188000000E0001946F000E936F93C05DF094C042
:101890005EF09569966942C0D9FF43C0DAFFDECF9A
:1018A000F6FFDDCFF7FF0800F550630AD8A45BEF21
:1018B0000CF05DEF0CF084EF0CF042C0D9FF43C098
:1018C000DAFFDE2A000EDD2244C0D9FF45C0DAFF70
:1018D000DFCF46F0020EDE26DFCF47F0000EDD221E
:1018E00046C0D9FF47C0DAFFDF50506E40C01CF041
:1018F00041C01DF050C01EF0D4EC13F01CC040F0ED
:101900001DC041F039EF0DF042C0D9FF43C0DAFFEE
:10191000DECFF6FFDDCFF7FF0800F550640AD8B43C
:1019200094EF0CF096EF0CF0A8EF0CF042C0D9FF4A
:1019300043C0DAFFDECFF6FFDDCFF7FF0800F5503A
:10194000690AD8A4A6EF0CF0A8EF0CF0E8EF0CF0B1
:1019500042C0D9FF43C0DAFFDE2A000EDD2244C0B8
:10196000D9FF45C0DAFFDFCF46F0020EDE26DFCF1B
:1019700047F0000EDD2246C0D9FF47C0DAFFDECFB8
:1019800048F0DDCF49F0000E49BEFF0E4A6E4B6EA7
:101990004C6E4D6E4E6E4F6E40C01CF041C01DF03F
:1019A00048C01EF049C01FF04AC020F04BC021F0D3
:1019B0004CC022F04DC023F04EC024F04FC025F0A3
:1019C000B8EC0AF01CC040F01DC041F039EF0DF03A
:1019D00042C0D9FF43C0DAFFDECFF6FFDDCFF7FF0D
:1019E0000800F550250AD8A4F8EF0CF0FAEF0CF037
:1019F00011EF0DF042C0D9FF43C0DAFFDE2A000E1E
:101A0000DD22000E026E250E016E40C003F041C0C3
:101A100004F033EC12F0000E416E010E406E39EF0F
:101A20000DF042C0D9FF43C0DAFFDE2A000EDD22EE
:101A3000000E416E000E406E39EF0DF042C0D9FF2E
:101A400043C0DAFFDECFF6FFDDCFF7FF0800F55029
:101A5000016E026A40C003F041C004F033EC12F0A2
:101A600042C0D9FF43C0DAFFDE2A000EDD220BEFB1
:101A70000DF01200116E1150D8B441EF0DF043EF8C
:101A80000DF065EF0DF00CBE4AEF0DF048EF0DF0D4
:101A900065EF0DF009C00DF00AC00EF00BC00FF09D
:101AA0000CC010F00D1E0E1E0F1E101E0D2A000E73
:101AB0000E220F2210220DC013F00EC014F00FC022
:101AC00015F010C016F06DEF0DF009C013F00AC04C
:101AD00014F00BC015F00CC016F009500A100B10D2
:101AE0000C10D8A476EF0DF078EF0DF082EF0DF02A
:101AF000000E096E000E0A6E000E0B6E000E0C6ECC
:101B000013EF0EF0960E126E8CEF0DF0122AD89095
:101B10001632153214321332000E13140D6E000EED
:101B200014140E6E000E15140F6EFE0E1614106EA9
:101B30000D500E100F101010D8A4A1EF0DF0A3EF50
:101B40000DF086EF0DF0B1EF0DF0122A010E132605
:101B5000000E142215221622D89016321532143295
:101B60001332000E13140D6E000E14140E6E000EC0
:101B700015140F6EFF0E1614106E0D500E100F1070
:101B80001010D8A4C6EF0DF0C8EF0DF0A5EF0DF0C2
:101B9000D0EF0DF01206D8901336143615361636DF
:101BA00015BED5EF0DF0D7EF0DF0DFEF0DF0020E03
:101BB0001260DDEF0DF0DFEF0DF0CAEF0DF012B0A7
:101BC000E4EF0DF0E6EF0DF0E7EF0DF0159ED89085
:101BD000123212C00DF00E6A0F6A106A0DC010F0BA
:101BE0000F6A0E6A0D6A0D5013120E5014120F5028
:101BF0001512105016121150D8B401EF0EF003EF69
:101C00000EF00BEF0EF00CBE0AEF0EF008EF0EF028
:101C10000BEF0EF0168E13C009F014C00AF015C0B9
:101C20000BF016C00CF01200000E126E10BE1DEF6D
:101C30000EF01BEF0EF02FEF0EF0101E0F1E0E1EFB
:101C40000D1E0C1E0B1E0A1E096C000E0A220B2212
:101C50000C220D220E220F221022010E126E08BE3F
:101C600036EF0EF034EF0EF048EF0EF0081E071EB0
:101C7000061E051E041E031E021E016C000E02221B
:101C8000032204220522062207220822010E121A2C
:101C900020EE13F0070EDE6AE806FDE209500A1096
:101CA0000B100C100D100E100F101010D8B45BEFAD
:101CB0000EF05DEF0EF0AFEF0EF0010E116E6BEF58
:101CC0000EF0D89009360A360B360C360D360E3625
:101CD0000F361036112A10AE70EF0EF072EF0EF0C4
:101CE00061EF0EF0D89013361436153616361736C7
:101CF000183619361A360950015C0A5002580B5032
:101D000003580C5004580D5005580E5006580F50EB
:101D1000075810500858D8A090EF0EF092EF0EF030
:101D2000A3EF0EF00950015E0A50025A0B50035AFD
:101D30000C50045A0D50055A0E50065A0F50075AAF
:101D40001050085A1380D89010320F320E320D32D4
:101D50000C320B320A320932112E72EF0EF0125091
:101D6000D8B4B5EF0EF0B7EF0EF0C7EF0EF01A1EB5
:101D7000191E181E171E161E151E141E136C000E9B
:101D80001422152216221722182219221A2213C0F1
:101D900001F014C002F015C003F016C004F017C023
:101DA00005F018C006F019C007F01AC008F01200BC
:101DB000000E126E08BEE1EF0EF0DFEF0EF0F3EF53
:101DC0000EF0081E071E061E051E041E031E021E20
:101DD000016C000E022203220422052206220722A1
:101DE0000822010E126E10BEFAEF0EF0F8EF0EF0A0
:101DF0000AEF0FF0101E0F1E0E1E0D1E0C1E0B1EE6
:101E00000A1E096C000E0A220B220C220D220E2241
:101E10000F22102209500A100B100C100D100E107A
:101E20000F101010D8B417EF0FF019EF0FF061EF8B
:101E30000FF0010E116E27EF0FF0D89009360A3619
:101E40000B360C360D360E360F361036112A10AE04
:101E50002CEF0FF02EEF0FF01DEF0FF00950015C8B
:101E60000A5002580B5003580C5004580D50055896
:101E70000E5006580F50075810500858D8A043EF7E
:101E80000FF045EF0FF055EF0FF00950015E0A50CB
:101E9000025A0B50035A0C50045A0D50055A0E505A
:101EA000065A0F50075A1050085AD89010320F3265
:101EB0000E320D320C320B320A320932112E2EEF55
:101EC0000FF01250D8B467EF0FF069EF0FF079EF11
:101ED0000FF0081E071E061E051E041E031E021E0E
:101EE000016C000E02220322042205220622072290
:101EF000082201C001F002C002F003C003F004C0D8
:101F000004F005C005F006C006F007C007F008C0E1
:101F100008F01200036E83968382016A03AE01D03B
:101F2000012A010E011601320132835001187F0B84
:101F30000118836E03C001F0060E026ED8900132C4
:101F4000022E9EEF0FF0010E0116013A01460146E6
:101F500083500118BF0B0118836E03C001F0050EFA
:101F6000026ED8900132022EB1EF0FF0010E011671
:101F7000013A014683500118DF0B0118836E03C03C
:101F800001F0013A0F0E0116010E0116013A8350BD
:101F90000118EF0B0118836E030EE82EFED700F038
:101FA000838600D000D000F0839603C001F0D89063
:101FB0000132D8900132D8900132010E011601325F
:101FC0000132835001187F0B0118836E03C001F0AA
:101FD000D8900132D8900132010E0116013A014623
:101FE000014683500118BF0B0118836E03C001F036
:101FF000D8900132010E0116013A014683500118B2
:10200000DF0B0118836E03C001F0010E0116013AC7
:1020100083500118EF0B0118836E030EE82EFED7D4
:1020200000F0838600D000D000F0839600D000D06E
:1020300000F0080E016E230EE82EFED7012EFCD70D
:1020400000F01200036E83968392016A03AE01D002
:10205000012A010E011601320132835001187F0B53
:102060000118836E03C001F0060E026ED890013293
:10207000022E36EF10F0010E0116013A014601461C
:1020800083500118BF0B0118836E03C001F0050EC9
:10209000026ED8900132022E49EF10F0010E0116A7
:1020A000013A014683500118DF0B0118836E03C00B
:1020B00001F0013A0F0E0116010E0116013A83508C
:1020C0000118EF0B0118836E030EE82EFED700F007
:1020D000838600D000D000F0839603C001F0D89032
:1020E0000132D8900132D8900132010E011601322E
:1020F0000132835001187F0B0118836E03C001F079
:10210000D8900132D8900132010E0116013A0146F1
:10211000014683500118BF0B0118836E03C001F004
:10212000D8900132010E0116013A01468350011880
:10213000DF0B0118836E03C001F0010E0116013A96
:1021400083500118EF0B0118836E030EE82EFED7A3
:1021500000F0838600D000D000F08396080E016E58
:10216000230EE82EFED7012EFCD700F01200000E41
:102170000F015E6F959E959C959A95989596959270
:102180009594839E839C839A839883968392839469
:10219000080E046E230EE82EFED7042EFCD700F0A6
:1021A000080E046E230EE82EFED7042EFCD700F096
:1021B000080E046E230EE82EFED7042EFCD700F086
:1021C000080E046E230EE82EFED7042EFCD700F076
:1021D000080E046E230EE82EFED7042EFCD700F066
:1021E000080E046E230EE82EFED7042EFCD700F056
:1021F000010E056E839E839C838A838883968392D7
:10220000839E839C838A83888386839200D000D0B8
:1022100000F0839E839C838A838883968392080E32
:10222000046E230EE82EFED7042EFCD700F0052AFC
:10223000030E05641EEF11F020EF11F0FAEF10F01D
:10224000839E839C838A839883968392839E839CB8
:10225000838A83988386839200D000D000F0839E87
:10226000839C838A839883968392080E046E230E40
:10227000E82EFED7042EFCD700F0280E22EC10F03A
:10228000100E22EC10F0010E22EC10F00F0E22ECDA
:1022900010F01200033404340A6E0A50D8A453EF2D
:1022A00011F055EF11F05FEF11F0000E016E000E0E
:1022B000026E000E036E000E046ECCEF11F001C032
:1022C00005F002C006F003C007F004C008F0200EBD
:1022D0006FEF11F0D8900832073206320532E82E3F
:1022E0006AEF11F00550096E038EFF0E0116FF0E06
:1022F0000216FF0E0316000E0416960E0A5E0ABEA4
:1023000086EF11F084EF11F09CEF11F00A50800A73
:10231000970FD8B08EEF11F090EF11F092EF11F00F
:1023200055EF11F0D89004320332023201320A3EE6
:1023300092EF11F0B4EF11F01F0E0A64A2EF11F04A
:10234000A4EF11F0ACEF11F055EF11F0D890013679
:102350000236033604360A060A50D8A4B2EF11F04A
:10236000B4EF11F0A6EF11F00950D8B4BAEF11F0A4
:10237000BCEF11F0C4EF11F0041E031E021E016C2D
:10238000000E02220322042201C001F002C002F06A
:1023900003C003F004C004F01200096EE4EF11F072
:1023A0000450800F0A6E01EF12F00450C00F0A6E45
:1023B00001EF12F00450940F0A6E01EF12F0045076
:1023C000D40F0A6E01EF12F00950076E086A085028
:1023D000000AD8B4EEEF11F001EF12F00750010A35
:1023E000D8B4D0EF11F0030AD8B4D5EF11F0010A38
:1023F000D8B4DAEF11F0070AD8B4DFEF11F001EF2B
:1024000012F00A5022EC10F01AEF12F005C0F6FF9D
:1024100006C0F7FFF86A070EF76403D00800F5500E
:1024200005D0F6CFE1FFF7CFE2FFE7508AEC0FF0DF
:10243000054A062A05C0F6FF06C0F7FFF86A070E30
:10244000F76403D00800F55005D0F6CFE1FFF7CFD1
:10245000E2FFE7500009D8A430EF12F032EF12F09B
:1024600006EF12F0120003500410D8B43AEF12F045
:102470003CEF12F045EF12F003500410D8A443EFE4
:1024800012F045EF12F04AEF12F00150A5EC14F0F3
:1024900097EF12F020EE04F00350D9260450DA2210
:1024A000DE50DE10D8B457EF12F059EF12F074EF8F
:1024B00012F020EE04F00350D9260450DA2210EE78
:1024C00002F00350E1260450E222DE50E65CE650C2
:1024D000800A096EDE50800A0958D8B072EF12F0F7
:1024E00074EF12F097EF12F020EE02F00350D926AD
:1024F0000450DA22DECF05F0DDCF06F003C0D9FFAD
:1025000004C0DAFFDECF07F0DDCF08F00550072466
:10251000D96E06500820DA6E01C0DFFF20EE02F00F
:102520000350D9260450DA22DE2A000EDD221200E2
:102530005DA09DEF12F09FEF12F0A9EF12F013C013
:102540000AF014C00BF011C00CF012C00DF02AEC10
:1025500014F016BEAEEF12F0B0EF12F0B6EF12F0BC
:1025600015C01AF016C01BF0BAEF12F0000E1B6E69
:10257000000E1A6E000E196E000E186ECCEF12F0DF
:10258000000E026E200E016E11C003F012C004F0A6
:1025900033EC12F0184A192A1A50185C1950800AA4
:1025A000176E1B50800A1758D8A0D9EF12F0DBEF36
:1025B00012F0C0EF12F05DB0E0EF12F0E2EF12F0B7
:1025C000ECEF12F013C00AF014C00BF011C00CF0C5
:1025D00012C00DF02AEC14F013C001F014C002F088
:1025E0006CEC14F01A500124116E1B500220126E74
:1025F0001200000E5C6E000E5B6E570ED36E000E66
:10260000806E000E896E000E0F015B6F000E926EE1
:10261000B7EC10F0010E22EC10F00C0E22EC10F0D2
:102620000A0E046E120E056E080E066E010ECDEC3B
:1026300011F0090E046E0D0E056E080E066E010EE9
:10264000CDEC11F0070E046E120E056E080E066E2C
:10265000010ECDEC11F0060E046E0D0E056E080E87
:10266000066E010ECDEC11F0040E046E120E056E16
:10267000080E066E010ECDEC11F08070000E000108
:10268000736F170E726F000E756F370E746F000E3A
:10269000776F2D0E766F000E796F000E786F0BEC52
:1026A00004F03DEF13F000EF00F001C003F0D8900C
:1026B0000336D89003363C0E0316C250C30B0310EA
:1026C000C26EC2B266EF13F06AEF13F0036A032A18
:1026D0006BEF13F0036A010E046E032A72EF13F01E
:1026E000D8900436032E70EF13F0C2B07AEF13F0D7
:1026F0007EEF13F0056A052A7FEF13F0056A010EDD
:10270000066E052A86EF13F0D8900636052E84EF64
:1027100013F006500410C212C2B291EF13F093EFFF
:1027200013F08CEF13F0C350C4CF03F0046A03C05E
:1027300004F0036A0310076E0450086E07C001F02E
:1027400008C002F0120053C057F054C058F0000EF9
:102750000001926F000E916FC1EF13F051C040F075
:1027600052C041F0570E426E000E436E55C044F009
:1027700056C045F027EC0CF0405000019127415025
:10278000922357C0F6FF58C0F7FF0800F550000924
:10279000D8A4CDEF13F0CFEF13F0AEEF13F091C04C
:1027A00051F092C052F01200000193519411D8A43C
:1027B000DCEF13F0DEEF13F0E4EF13F093C01FF043
:1027C00094C020F0EAEF13F0FF0E93251F6EFF0E6A
:1027D0009421206E1EC097F0000E986F1CC011F05F
:1027E0001DC012F0970E136E000E146E1FC015F070
:1027F00020C016F098EC12F011C01CF012C01DF0B1
:102800001200640E00016A6F000E6B6F60C06CF006
:1028100061C06DF0000E6F6F000E6E6F000E716F75
:10282000000E706F6C0E516E000E526E62C053F04F
:1028300063C054F06A0E556E000E566EA3EC13F092
:1028400000016E516025D96E6F516121DA6E000E64
:10285000DF6E1200000E106E000E0F6E3BEF14F0D4
:102860000EC001F0026A0CC003F00DC004F033EC9E
:1028700012F00F4A102A0F500A24D96E10500B2064
:10288000DA6EDF500E6E0E50D8A449EF14F04BEF05
:1028900014F030EF14F0120014BE59EF14F014507D
:1028A00006E11304D8B057EF14F059EF14F067EFB6
:1028B00014F013C015F014C016F0151E161E154A9C
:1028C000162A15C013F016C014F06BEF14F013C0E5
:1028D00013F014C014F0120001C003F002C004F0A1
:1028E00074EF14F0014A022A01C0D9FF02C0DAFFD6
:1028F000DF50D8A47EEF14F080EF14F072EF14F0E4
:102900000350015C016E04500258026E120003C0B5
:10291000D7FF05C0D6FF01C0D5FFD58EF2A493EF37
:1029200014F095EF14F08EEF14F0D59EF29412008F
:1029300000EE91F0260EEE6AE806FDE15E6A5D6A41
:0C294000000EF86E0001F9EF12F012001A
:020000040020DA
:08000000FFFFFFFFFFFFFFFF00
:020000040030CA
:0E00000000085E3CFFD381FF0FC00FE00F40F1
:00000001FF
